:020000040800F2
:108000000000022069870008E9860008EF86000862
:10801000F5860008FB8600080187000800000000C4
:1080200000000000000000000000000007870008BA
:10803000158700080000000023870008318700082A
:10804000B9870008B9870008B9870008B987000810
:10805000B9870008B9870008B9870008B987000800
:10806000B9870008B9870008B9870008B9870008F0
:10807000B9870008B9870008B9870008B9870008E0
:10808000B9870008B9870008B9870008B9870008D0
:10809000B9870008B9870008B9870008B9870008C0
:1080A000B9870008B9870008B9870008B9870008B0
:1080B000B9870008B9870008B9870008B9870008A0
:1080C000B9870008B9870008B9870008B987000890
:1080D000B9870008B9870008B9870008B987000880
:1080E000B9870008B9870008B9870008B987000870
:1080F000B9870008B9870008B9870008B987000860
:10810000B9870008B9870008B9870008B98700084F
:10811000B9870008B9870008B9870008B98700083F
:10812000B9870008B9870008B9870008B98700082F
:10813000B9870008B9870008B9870008B98700081F
:10814000B9870008B9870008B9870008B98700080F
:10815000B9870008B9870008B9870008B9870008FF
:10816000B9870008B9870008B9870008B9870008EF
:10817000B9870008B9870008B98700080000000027
:08818000B9870008B987000867
:1081880010B5054C237833B9044B13B10448AFF349
:1081980000800123237010BD0C00002000000000A7
:1081A8007497000808B5034B1BB103490348AFF3A4
:1081B800008008BD0000000010000020749700082F
:1081C80053B94AB9002908BF00281CBF4FF0FF3136
:1081D8004FF0FF3000F074B9ADF1080C6DE904CE32
:1081E80000F006F8DDF804E0DDE9022304B070478A
:1081F8002DE9F047089D04468E46002B4DD18A4252
:10820800944669D9B2FA82F252B101FA02F3C2F184
:10821800200120FA01F10CFA02FC41EA030E944015
:108228004FEA1C48210CBEFBF8F61FFA8CF708FB36
:1082380016E341EA034306FB07F199420AD91CEB0E
:10824800030306F1FF3080F01F81994240F21C8140
:10825800023E63445B1AA4B2B3FBF8F008FB103388
:1082680044EA034400FB07F7A7420AD91CEB0404BD
:1082780000F1FF3380F00A81A74240F2078164448D
:10828800023840EA0640E41B00261DB1D440002312
:10829800C5E900433146BDE8F0878B4209D9002D76
:1082A80000F0EF800026C5E9000130463146BDE800
:1082B800F087B3FA83F6002E4AD18B4202D382426A
:1082C80000F2F980841A61EB030301209E46002D19
:1082D800E0D0C5E9004EDDE702B9FFDEB2FA82F26E
:1082E800002A40F09280A1EB0C014FEA1C471FFACC
:1082F8008CFE0126200CB1FBF7F307FB131140EAB3
:1083080001410EFB03F0884208D91CEB010103F17F
:10831800FF3802D2884200F2CB804346091AA4B241
:10832800B1FBF7F007FB101144EA01440EFB00FE15
:10833800A64508D91CEB040400F1FF3102D2A6457A
:1083480000F2BB800846A4EB0E0440EA03409CE719
:10835800C6F12007B34022FA07FC4CEA030C20FAC6
:1083680007F401FA06F31C43F9404FEA1C4900FAE6
:1083780006F3B1FBF9F8200C1FFA8CFE09FB181163
:1083880040EA014108FB0EF0884202FA06F20BD9D6
:108398001CEB010108F1FF3A80F08880884240F226
:1083A8008580A8F102086144091AA4B2B1FBF9F06A
:1083B80009FB101144EA014100FB0EFE8E4508D965
:1083C8001CEB010100F1FF346CD28E456AD90238EA
:1083D800614440EA0840A0FB0294A1EB0E01A142CF
:1083E800C846A64656D353D05DB1B3EB080261EB3D
:1083F8000E0101FA07F722FA06F3F1401F43C5E917
:10840800007100263146BDE8F087C2F12003D8404C
:108418000CFA02FC21FA03F3914001434FEA1C478E
:108428001FFA8CFEB3FBF7F007FB10360B0C43EA80
:10843800064300FB0EF69E4204FA02F408D91CEB30
:10844800030300F1FF382FD29E422DD9023863442E
:108458009B1B89B2B3FBF7F607FB163341EA0341CE
:1084680006FB0EF38B4208D91CEB010106F1FF381D
:1084780016D28B4214D9023E6144C91A46EA004614
:1084880038E72E46284605E70646E3E61846F8E6A6
:108498004B45A9D2B9EB020864EB0C0E0138A3E7EF
:1084A8004646EAE7204694E74046D1E7D0467BE7D0
:1084B800023B614432E7304609E76444023842E748
:1084C800704700BF80B500AF00F074F900F00EF8F7
:1084D80000F078F84FF47041034800F09CFC6420E9
:1084E80000F0DAF9F6E700BF000C024080B594B05E
:1084F80000AF07F1200330220021184601F02EF9C1
:1085080007F10C0300221A605A609A60DA601A6157
:108518000023BB60294B1B6C284A43F0805313642B
:10852800264B1B6C03F08053BB60BB6800237B6049
:10853800234B1B68224A43F480431360204B1B687B
:1085480003F480437B607B6809233B624FF48033EC
:108558007B6201237B630223BB634FF48003FB63CD
:1085680008233B644FF4A8737B640223BB64042391
:10857800FB6407F12003184600F068FC0346002B53
:1085880001D000F07FF80F23FB6002233B6100233A
:108598007B614FF4A053BB614FF4A053FB6107F11B
:1085A8000C030521184600F0C9FE0346002B01D034
:1085B80000F068F800BF5037BD4680BD0038024063
:1085C8000070004080B58AB000AF07F114030022A4
:1085D8001A605A609A60DA601A6100233B61274B7F
:1085E8001B6B264A43F004031363244B1B6B03F0F5
:1085F80004033B613B690023FB60204B1B6B1F4A54
:1086080043F0800313631D4B1B6B03F08003FB6077
:10861800FB680023BB60194B1B6B184A43F0080327
:108628001363164B1B6B03F00803BB60BB68002386
:108638007B60124B1B6B114A43F0010313630F4B12
:108648001B6B03F001037B607B6800224FF47041D1
:108658000B4800F0C7FB4FF470437B610123BB61FB
:108668000023FB6100233B6207F114031946044809
:1086780000F01CFA00BF2837BD4680BD0038024014
:10868800000C024080B400AF72B600BFFEE70000E5
:1086980080B582B000AF00237B60104B5B6C0F4A43
:1086A80043F4804353640D4B5B6C03F480437B605D
:1086B8007B6800233B60094B1B6C084A43F08053DE
:1086C8001364064B1B6C03F080533B603B68072028
:1086D80000F0B8F900BF0837BD4680BD0038024039
:1086E80080B400AFFEE780B400AFFEE780B400AF0F
:1086F800FEE780B400AFFEE780B400AFFEE780B4C9
:1087080000AF00BFBD465DF8047B704780B400AF82
:1087180000BFBD465DF8047B704780B400AF00BF62
:10872800BD465DF8047B704780B500AF00F094F853
:1087380000BF80BD80B400AF074BD3F88830064A2D
:1087480043F47003C2F88830034B044A9A6000BFB0
:10875800BD465DF8047B704700ED00E0008000082E
:10876800DFF834D00D480E490E4A002302E0D458F1
:10877800C4500433C4188C42F9D30B4A0B4C002361
:1087880001E013600432A242FBD3FFF7D3FF00F0ED
:10879800C1FFFFF797FE704700000220000000208D
:1087A8000C000020AC9700080C0000202C000020D2
:1087B800FEE7000080B500AF0E4B1B680D4A43F47E
:1087C800007313600B4B1B680A4A43F48063136001
:1087D800084B1B68074A43F480731360032000F0BA
:1087E80031F9002000F008F8FFF752FF002318467F
:1087F80080BD00BF003C024080B582B000AF786009
:10880800124B1A68124B1B7819464FF47A73B3FB54
:10881800F1F3B2FBF3F3184600F03BF90346002BE3
:1088280001D001230EE07B680F2B0AD8002279685B
:108838004FF0FF3000F011F9064A7B6813600023FF
:1088480000E0012318460837BD4680BD000000201F
:10885800080000200400002080B400AF064B1B78FD
:108868001A46064B1B681344044A136000BFBD46F2
:108878005DF8047B704700BF080000202800002036
:1088880080B400AF034B1B681846BD465DF8047BF7
:10889800704700BF2800002080B584B000AF786022
:1088A800FFF7EEFFB8607B68FB60FB68B3F1FF3F42
:1088B80005D00A4B1B781A46FB681344FB6000BFBF
:1088C800FFF7DEFF0246BB68D31AFA689A42F7D868
:1088D80000BF00BF1037BD4680BD00BF08000020A4
:1088E80080B485B000AF78607B6803F00703FB6055
:1088F8000C4BDB68BB60BA684FF6FF031340BB60E4
:10890800FB681A02BB68134343F0BF6343F40033A8
:10891800BB60044ABB68D36000BF1437BD465DF82E
:10892800047B704700ED00E080B400AF044BDB68C7
:108938001B0A03F007031846BD465DF8047B704721
:1089480000ED00E080B483B000AF03463960FB71EE
:1089580097F90730002B0ADB3B68DAB20C4997F924
:1089680007301201D2B20B4483F800230AE03B68B7
:10897800DAB20849FB7903F00F03043B1201D2B2C3
:108988000B441A7600BF0C37BD465DF8047B704770
:1089980000E100E000ED00E080B489B000AFF860CD
:1089A800B9607A60FB6803F00703FB61FB69C3F1F8
:1089B8000703042B28BF0423BB61FB690433062B80
:1089C80002D9FB69033B00E000237B614FF0FF32D3
:1089D800BB6902FA03F3DA43BB681A407B699A4021
:1089E8004FF0FF317B6901FA03F3D9437B680B40F1
:1089F800134318462437BD465DF8047B70470000D2
:108A080080B582B000AF78607B68013BB3F1807FAE
:108A180001D301230FE00A4A7B68013B53600F2111
:108A28004FF0FF30FFF78EFF054B00229A60044B92
:108A380007221A60002318460837BD4680BD00BFCC
:108A480010E000E080B582B000AF78607868FFF78A
:108A580047FF00BF0837BD4680BD80B586B000AF70
:108A68000346B9607A60FB7300237B61FFF75CFF04
:108A780078617A68B9687869FFF78EFF024697F9D6
:108A88000F3011461846FFF75DFF00BF1837BD4687
:108A980080BD80B582B000AF78607868FFF7B0FF1E
:108AA800034618460837BD4680BD000080B489B02B
:108AB80000AF7860396000237B6100233B610023AD
:108AC800BB610023FB616BE10122FB6902FA03F33E
:108AD8007B613B681B687A6913403B613A697B6933
:108AE8009A4240F05A813B685B6803F00303012B0C
:108AF80005D03B685B6803F00303022B30D17B6829
:108B08009B68BB61FB695B00032202FA03F3DB434A
:108B1800BA691340BB613B68DA68FB695B0002FA1B
:108B280003F3BA691343BB617B68BA699A607B68CF
:108B38005B68BB610122FB6902FA03F3DB43BA6994
:108B48001340BB613B685B681B0903F00102FB69CA
:108B580002FA03F3BA691343BB617B68BA695A60C6
:108B68003B685B6803F00303032B17D07B68DB6863
:108B7800BB61FB695B00032202FA03F3DB43BA69BA
:108B88001340BB613B689A68FB695B0002FA03F318
:108B9800BA691343BB617B68BA69DA603B685B6892
:108BA80003F00303022B23D1FB69DA087B68083240
:108BB80053F82230BB61FB6903F007039B000F22C7
:108BC80002FA03F3DB43BA691340BB613B681A69D5
:108BD800FB6903F007039B0002FA03F3BA69134326
:108BE800BB61FB69DA087B680832B96943F822106F
:108BF8007B681B68BB61FB695B00032202FA03F315
:108C0800DB43BA691340BB613B685B6803F003024E
:108C1800FB695B0002FA03F3BA691343BB617B6823
:108C2800BA691A603B685B6803F44033002B00F0B4
:108C3800B4800023FB60604B5B6C5F4A43F4804365
:108C480053645D4B5B6C03F48043FB60FB685B4AD9
:108C5800FB699B08023352F82330BB61FB6903F0C0
:108C680003039B000F2202FA03F3DB43BA691340A4
:108C7800BB617B68524A93422BD07B68514A93422E
:108C880025D07B68504A93421FD07B684F4A934255
:108C980019D07B684E4A934213D07B684D4A934261
:108CA8000DD07B684C4A934207D07B684B4A93426D
:108CB80001D107230EE008230CE006230AE0052370
:108CC80008E0042306E0032304E0022302E0012372
:108CD80000E00023FA6902F0030292009340BA69A7
:108CE8001343BB613549FB699B080233BA6941F8F4
:108CF80023203B4B9B68BB613B69DB43BA6913404C
:108D0800BB613B685B6803F48013002B03D0BA692E
:108D18003B691343BB61324ABB699360304BDB68E4
:108D2800BB613B69DB43BA691340BB613B685B6865
:108D380003F40013002B03D0BA693B691343BB61EA
:108D4800274ABB69D360264B5B68BB613B69DB4341
:108D5800BA691340BB613B685B6803F40033002BBE
:108D680003D0BA693B691343BB611D4ABB695360B1
:108D78001B4B1B68BB613B69DB43BA691340BB6192
:108D88003B685B6803F48033002B03D0BA693B6906
:108D98001343BB61124ABB691360FB690133FB6172
:108DA800FB690F2B7FF690AE00BF00BF2437BD468E
:108DB8005DF8047B704700BF00380240003801406E
:108DC800000002400004024000080240000C02407B
:108DD800001002400014024000180240001C02402B
:108DE800003C014080B483B000AF78600B467B80C4
:108DF80013467B707B78002B03D07A887B689A6156
:108E080003E07B881A047B689A6100BF0C37BD4673
:108E18005DF8047B704780B485B000AF78600B467E
:108E28007B807B685B69FB607A88FB6813401A0467
:108E3800FB68D9437B880B401A437B689A6100BF63
:108E48001437BD465DF8047B7047000080B586B0D6
:108E580000AF78607B68002B01D1012367E27B6853
:108E68001B6803F00103002B75D0884B9B6803F047
:108E78000C03042B0CD0854B9B6803F00C03082BC8
:108E880012D1824B5B6803F48003B3F5800F0BD1DA
:108E98007E4B1B6803F40033002B5BD07B685B6858
:108EA800002B57D1012342E27B685B68B3F5803F12
:108EB80006D1764B1B68754A43F4803313601DE076
:108EC8007B685B68B3F5A02F0CD1704B1B686F4AA9
:108ED80043F4802313606D4B1B686C4A43F4803362
:108EE80013600BE0694B1B68684A23F480331360F6
:108EF800664B1B68654A23F4802313607B685B68B4
:108F0800002B13D0FFF7BCFC386108E0FFF7B8FC72
:108F180002463B69D31A642B01D9032307E25B4B52
:108F28001B6803F40033002BF0D014E0FFF7A8FC13
:108F3800386108E0FFF7A4FC02463B69D31A642BAA
:108F480001D90323F3E1514B1B6803F40033002BD1
:108F5800F0D100E000BF7B681B6803F00203002B20
:108F680063D04A4B9B6803F00C03002B0BD0474B94
:108F78009B6803F00C03082B1CD1444B5B6803F47B
:108F88008003002B16D1414B1B6803F00203002B12
:108F980005D07B68DB68012B01D00123C7E13B4B7F
:108FA8001B6823F0F8027B681B69DB003749134311
:108FB8000B603AE07B68DB68002B20D0344B012241
:108FC8001A60FFF75DFC386108E0FFF759FC0246BC
:108FD8003B69D31A022B01D90323A8E12B4B1B6849
:108FE80003F00203002BF0D0284B1B6823F0F80293
:108FF8007B681B69DB00254913430B6015E0244B94
:1090080000221A60FFF73CFC386108E0FFF738FCE3
:1090180002463B69D31A022B01D9032387E11B4B74
:109028001B6803F00203002BF0D17B681B6803F078
:109038000803002B36D07B685B69002B16D0154BD4
:1090480001221A60FFF71CFC386108E0FFF718FCE2
:1090580002463B69D31A022B01D9032367E10B4B64
:109068005B6F03F00203002BF0D01BE0094B0022DA
:109078001A60FFF705FC38610EE0FFF701FC0246B5
:109088003B69D31A022B07D9032350E10038024069
:1090980000004742800E4742884B5B6F03F0020393
:1090A800002BEAD17B681B6803F00403002B00F057
:1090B80097800023FB75814B1B6C03F08053002BBA
:1090C8000FD10023BB607D4B1B6C7C4A43F080535F
:1090D80013647A4B1B6C03F08053BB60BB6801239D
:1090E800FB75774B1B6803F48073002B18D1744B06
:1090F8001B68734A43F480731360FFF7C1FB386140
:1091080008E0FFF7BDFB02463B69D31A022B01D9E1
:1091180003230CE16A4B1B6803F48073002BF0D027
:109128007B689B68012B06D1644B1B6F634A43F035
:10913800010313671CE07B689B68052B0CD15F4B10
:109148001B6F5E4A43F0040313675C4B1B6F5B4A5B
:1091580043F0010313670BE0584B1B6F574A23F08A
:1091680001031367554B1B6F544A23F0040313671D
:109178007B689B68002B15D0FFF782FB38610AE0FB
:10918800FFF77EFB02463B69D31A41F288329342CD
:1091980001D90323CBE0494B1B6F03F00203002BDB
:1091A800EED014E0FFF76CFB38610AE0FFF768FBCC
:1091B80002463B69D31A41F28832934201D903230C
:1091C800B5E03E4B1B6F03F00203002BEED1FB7D95
:1091D800012B05D1394B1B6C384A23F0805313649B
:1091E8007B689B69002B00F0A180344B9B6803F0DF
:1091F8000C03082B5CD07B689B69022B41D1314B57
:1092080000221A60FFF73CFB386108E0FFF738FBE3
:1092180002463B69D31A022B01D9032387E0274B67
:109228001B6803F00073002BF0D17B68DA697B6858
:109238001B6A1A437B685B6A9B011A437B689B6ABB
:109248005B08013B1B041A437B68DB6A1B061B494E
:1092580013434B601B4B01221A60FFF711FB386167
:1092680008E0FFF70DFB02463B69D31A022B01D930
:1092780003235CE0114B1B6803F00073002BF0D054
:1092880054E0104B00221A60FFF7FAFA386108E040
:10929800FFF7F6FA02463B69D31A022B01D90323DA
:1092A80045E0064B1B6803F00073002BF0D13DE04E
:1092B8007B689B69012B07D1012338E00038024005
:1092C80000700040600047421B4B5B68FB607B6896
:1092D8009B69012B28D0FB6803F480027B68DB695B
:1092E8009A4221D1FB6803F03F027B681B6A9A42CD
:1092F8001AD1FA6847F6C07313407A68526A920125
:10930800934211D1FB6803F440327B689B6A5B0887
:10931800013B1B049A4207D1FB6803F070627B682B
:10932800DB6A1B069A4201D0012300E0002318469D
:109338001837BD4680BD00BF0038024080B584B0F4
:1093480000AF786039607B68002B01D10123CCE045
:10935800684B1B6803F007033A689A420CD9654BBF
:109368003A68D2B21A70634B1B6803F007033A6875
:109378009A4201D00123B8E07B681B6803F002031E
:10938800002B20D07B681B6803F00403002B05D05A
:10939800594B9B68584A43F4E05393607B681B68B9
:1093A80003F00803002B05D0534B9B68524A43F443
:1093B80060439360504B9B6823F0F0027B689B6886
:1093C8004D4913438B607B681B6803F00103002B36
:1093D80044D07B685B68012B07D1474B1B6803F4BB
:1093E8000033002B19D101237FE07B685B68022BD7
:1093F80003D07B685B68032B07D13F4B1B6803F0E6
:109408000073002B09D101236FE03B4B1B6803F06D
:109418000203002B01D1012367E0374B9B6823F03F
:1094280003027B685B68344913438B60FFF728FAB3
:10943800F8600AE0FFF724FA0246FB68D31A41F203
:109448008832934201D903234FE02B4B9B6803F0EA
:109458000C027B685B689B009A42EBD1254B1B682A
:1094680003F007033A689A420CD2224B3A68D2B208
:109478001A70204B1B6803F007033A689A4201D020
:10948800012332E07B681B6803F00403002B08D03B
:10949800194B9B6823F4E0527B68DB681649134339
:1094A8008B607B681B6803F00803002B09D0124B04
:1094B8009B6823F460427B681B69DB000E491343F9
:1094C8008B6000F021F802460B4B9B681B0903F0E8
:1094D8000F030A49CB5C22FA03F3094A1360094BCC
:1094E8001B681846FFF788F9002318461037BD4651
:1094F80080BD00BF003C0240003802408C97000845
:1095080000000020040000202DE9B04F94B000AF07
:1095180000237B640023FB6400233B640023BB64BB
:10952800794B9B6803F00C03082B0DD0082B00F235
:10953800E180002B02D0042B03D0DBE0734BBB642B
:10954800DBE0734BBB64D8E06F4B5B6803F03F0311
:109558007B646D4B5B6803F48003002B63D06A4B1C
:109568005B689B090022BB63FA63BB6BC3F3080308
:109578003B6300237B63D7E90C4522462B464FF01B
:1095880000004FF00001590141EAD2615001024642
:109598000B462146511A3961294663EB01037B6169
:1095A8004FF000024FF00003D7E904AB59468B0196
:1095B800514643EA916351468A015146B2EB01088C
:1095C800594663EB01094FF000024FF000034FEAE0
:1095D800C90343EA58734FEAC8029046994623469E
:1095E80018EB0303BB602B4649EB0303FB604FF00A
:1095F80000024FF00003D7E9024529464B022146F5
:1096080043EAD15321464A02104619467B6C002290
:10961800BB62FA62D7E90A23FEF7D2FD02460B467F
:109628001346FB6458E0384B5B689B0900221846D8
:109638001146C0F308033B6200237B62D7E908891F
:1096480042464B464FF000004FF00001590141EAF5
:10965800D261500102460B464146B2EB010A494627
:1096680063EB010B4FF000024FF000034FEA8B133E
:1096780043EA9A634FEA8A12B2EB0A0463EB0B05DA
:109688004FF000024FF00003EB0043EA5473E2008E
:1096980014461D464346E3183B604B4645EB03031F
:1096A8007B604FF000024FF00003D7E900452946E0
:1096B8008B02214643EA915321468A0210461946F5
:1096C8007B6C0022BB61FA61D7E90623FEF778FDBF
:1096D80002460B461346FB640B4B5B681B0C03F0FE
:1096E800030301335B003B64FA6C3B6CB2FBF3F39E
:1096F800BB6402E0054BBB6400BFBB6C1846503727
:10970800BD46BDE8B08F00BF003802400024F40019
:1097180000127A0070B50D4D0D4C641BA410002684
:10972800A64209D10B4D0C4C00F020F8641BA41084
:109738000026A64205D170BD55F8043B984701366E
:10974800EEE755F8043B98470136F2E7A49700087E
:10975800A4970008A4970008A897000802440346A5
:10976800934200D1704703F8011BF9E7F8B500BF31
:10977800F8BC08BC9E467047F8B500BFF8BC08BCEA
:049788009E46704742
:10978C0000000000000000000102030406070809A5
:08979C005CEAFF7F0100000000
:0497A400AD8100088B
:0497A80089810008AB
:0C97AC000024F400100000000100000088
:0400000508008769FF
:00000001FF
