:020000040800F2
:10800000080400209D810008A5810008A7810008C0
:10801000A9810008AB810008AD81000800000000C4
:10802000000000000000000000000000AF81000818
:10803000B181000800000000B38100088F8A0008A9
:10804000B7810008B7810008B7810008B781000830
:10805000B7810008B7810008B7810008B781000820
:10806000B7810008B7810008B7810008B781000810
:10807000B7810008B7810008B7810008B781000800
:10808000B7810008B7810008B7810008B7810008F0
:10809000B7810008B7810008B7810008B7810008E0
:1080A000B7810008B7810008B7810008B7810008D0
:1080B000B7810008B7810008B7810008B7810008C0
:1080C000B7810008B7810008B7810008B7810008B0
:1080D000B7810008B7810008B7810008B7810008A0
:1080E000B7810008B7810008B7810008B781000890
:1080F000B7810008B7810008B7810008B781000880
:10810000B7810008B7810008B7810008B78100086F
:10811000B7810008B7810008B7810008B78100085F
:10812000B7810008B7810008B7810008B78100084F
:10813000B7810008B7810008B7810008B78100083F
:10814000B7810008B7810008B7810008B78100082F
:10815000B7810008B7810008B7810008B78100081F
:10816000B7810008B7810008B7810008B78100080F
:10817000B7810008B7810008B7810008000000003F
:10818000B7810008B7810008DFF80CD000F068F86C
:1081900000480047B58B00080804002006488047C7
:1081A00006480047FEE7FEE7FEE7FEE7FEE7FEE7DC
:1081B000FEE7FEE7FEE7FEE73D8B00088981000849
:1081C0002DE9F05F0546002092469B46884606460C
:1081D000814640241BE0284641464746224600F09F
:1081E0002FF853465A46C01A914110D311461846EB
:1081F000224600F016F82D1A67EB01084F4622467A
:108200000120002100F00DF817EB00094E41201E5F
:10821000A4F10104DFDC484631462A464346BDE866
:10822000F09F202A04DB203A00FA02F10020704778
:108230009140C2F1200320FA03F3194390407047A4
:10824000202A04DB203A21FA02F00021704721FAAB
:1082500002F3D040C2F12002914008431946704712
:10826000064C074D06E0E06840F0010394E8070083
:1082700098471034AC42F6D3FFF78AFF2C8C0008E5
:108280004C8C000831B500F0EDF8009C0546601CF0
:1082900000D0641C00F0E6F8401BA042FAD338BDC1
:1082A0002DE9F84FDFF87CB100224FF001084FF0C4
:1082B000030A4FF00F090BF1040E00BF0B6808FA18
:1082C00002F42340A3426ED14D68022D01D0122D3D
:1082D0000ED1D50800EB850CDCF820505607F70EC0
:1082E00009FA07F6B5430E69BE402E43CCF820606C
:1082F000066855000F790AFA05FC07F0030726EA1D
:108300000C06AF40374307604E68012E05D0022EA1
:1083100003D0112E01D0122E0ED18668CF6826EA26
:108320000C06AF40374387604668A6430C79C4F318
:108330000014944034434460C6688C6826EA0C06F6
:10834000AC403443C4604C68E40065D5364C2568C5
:1083500045F480452560246822F0030504F4804438
:108360000094324C2E19D6F8084895072F0F09FAB9
:1083700007F5AC432E4DA84201D1002524E02D4D38
:10838000A84201D101251FE02B4DA84201D10225B1
:108390001AE02A4DA84201D1032515E0284DA84234
:1083A00002D1042510E037E0264DA84201D1052571
:1083B0000AE0254DA84201D1062505E0234DA8423B
:1083C00001D1072500E00825BD402543C6F808581F
:1083D000DBF800405D464E689C43F60300D51C4325
:1083E0002C60DEF8004075464E689C43B60300D50D
:1083F0001C432C600B4D08352C684E689C43F602DC
:1084000000D51C432C60074D0C352C684E689C43EE
:10841000B60200D51C432C60521C102AFFF44EAF4C
:10842000BDE8F88F003C0140443802400030014074
:10843000000002400004024000080240000C02401C
:10844000001002400014024000180240001C0240CC
:1084500042694A40426170470AB18161704709042C
:10846000FBE70000014800687047000000000020A2
:1084700002480168491C01607047000000000020AC
:108480000B4810B5016841F400710160016841F4C6
:1084900080610160016841F480710160032000F097
:1084A00069F8002000F006F800F018F8002010BD70
:1084B000003C024010B5044607484FF47A7100684A
:1084C000B0FBF1F000F0BBFA00222146501E00F094
:1084D00031F8002010BD00000400002010B503207A
:1084E00000F048F8002211466FF00B0000F022F86F
:1084F000002211466FF00A0000F01CF8002211461D
:108500006FF0090000F016F800221146501F00F02D
:1085100011F800221146101F00F00CF8002211463D
:10852000901E00F007F80022BDE810401146501ED2
:10853000AFF30080F0B40E4B1B680C46C3F302236C
:10854000C3F10705042D00D90425191D072901D2FF
:10855000002300E0DB1E012606FA05F1491E21403A
:1085600099409E40761E16403143F0BC00F07FBA21
:108570000CED00E0064900F0070208684FF6FF0323
:10858000184040EA0220034A104308607047000088
:108590000CED00E00000FA052DE9F0470E4605005D
:1085A00065D0DFF81481D8F80000F7B200F00F00B2
:1085B000B04207D288F80070D8F8000000F00F0031
:1085C000B04254D128683D4C810712D5400703D5ED
:1085D000206840F4E05020602878000703D5206828
:1085E00040F4604020602068A96820F0F000084353
:1085F00020602878C0072DD03049686808390128E4
:1086000012D0022813D0032811D009688907002945
:108610002DDA216821F0030101432160FFF722FFD9
:10862000814641F2883A0EE009688903EFE709685C
:108630008901ECE7FFF716FFA0EB0901514502D9CC
:108640000320BDE8F0872068696800F00C00B0EBFB
:10865000810FEFD1D8F80010404601F00F01B14270
:1086600007D90770006800F00F00B04201D0012068
:10867000E7E72878400705D52068E96820F4E0504E
:10868000084320602878000706D52068296920F46F
:10869000604040EAC100206000F01CF82168084AF0
:1086A000C1F30311515CC840064908600020FFF780
:1086B00001FF0020C5E70000003C024008380240EE
:1086C0001C8C00080400002001480068704700006E
:1086D00004000020154810B5006810F00C02144882
:1086E00013D04110042A0FD0082A0ED10F4C241F9A
:1086F0002268236802F03F025B0207D52068C0F3BE
:108700008810A0FB010106E0084610BD2168C1F3F6
:108710008811A1FB00010023FFF752FD2168C1F37E
:108720000141491C4900B0FBF1F010BD083802407E
:108730000024F4002DE9F84F050071D0DFF8D09245
:108740002878A9F1040BC007ABF104044AD0D9F88A
:1087500000104846C1F38101012908D00068C0F328
:10876000810002280AD1DBF80000400206D520680B
:10877000800337D568680028DFD033E06868B0F53B
:10878000803F10D0B0F5A02F206810D020F48030AA
:108790002060206820F4802020606868A8B1FFF77E
:1087A00061FE06460DE0206840F48030F4E740F4B6
:1087B00080202060F7E700BFFFF754FE801B64288D
:1087C00073D820688003F7D50CE0FFF74BFE064610
:1087D00005E000BFFFF746FE801B6428F0D8206844
:1087E0008003F7D428788B4F80074FF0010A4FF0B1
:1087F00000083DD5D9F80010484611F00C0F08D0FC
:108800000068C0F3810002280BD1DBF800004002B1
:1088100007D42068800715D5E868012800D111E049
:10882000F3E0E868B0B1C7F800A0FFF71BFE06460A
:1088300005E000BFFFF716FE801B022835D8206830
:108840008007F7D52068296920F0F80040EAC100C8
:1088500020600DE0C7F80080FFF704FE064604E044
:10886000FFF700FE801B02281FD820688007F7D47E
:108870002878000724D56848696981B1C0F800A04C
:10888000FFF7F0FD064604E0FFF7ECFD801B022831
:108890000BD85F486C3000688007F5D510E0C0F851
:1088A0000080FFF7DFFD064605E074E0FFF7DAFD24
:1088B000801B02286FD856486C3000688007F5D4BA
:1088C0002878400753D552483830016841F080512C
:1088D0000160006800F0805000905048016841F449
:1088E00080710160FFF7BEFD064604E0FFF7BAFDA8
:1088F000801B02284FD849480068C005F6D5444E71
:10890000A868683601280FD00528306810D020F0FC
:1089100001003060306820F004003060A868B8B111
:10892000FFF7A0FD00900FE0306840F00100F4E791
:1089300040F004003060F7E7FFF794FD0099411A1A
:1089400041F28830814258D830688007F4D50EE073
:10895000FFF788FD009007E0FFF784FD0099411ABA
:1089600041F28830814248D830688007F4D4A86941
:1089700090B3D9F80010C1F38101022945D0022833
:10898000C7F8608003D0FFF76DFD054638E0FFF7BC
:1089900069FD064605E030E0FFF764FD801B022814
:1089A0002BD820688001F7D4D5E907010843A96ACC
:1089B0001B4A490802EB01416A6A41EA82110843F5
:1089C00095F82C1040EA0161CBF80010C7F860A0C0
:1089D000FFF748FD054606E015E000BFFFF742FD42
:1089E000401B022809D820688001F7D50BE000BFA2
:1089F000FFF738FD401B022802D90320BDE8F88F9D
:108A000020688001F4D40020F8E70120F6E7000098
:108A10000838024000004742800E47420070004084
:108A20000000FFFF4FF0E0210428086903D020F088
:108A300004000861704740F00400FAE7704710B581
:108A4000401EB0F1807F01D3012010BD4FF0E02423
:108A500060610F21601700F00AF80020A061072074
:108A60002061002010BD10B5FFF7E8FF10BD090719
:108A7000090E002806DA00F00F0000F1E02080F86F
:108A8000141D704700F1E02080F80014704710B505
:108A9000FFF7EEFCBDE81040FFF7E5BF30B5254815
:108AA00093B00025016841F080510160006800F03A
:108AB000805011902048016841F4804101600068B5
:108AC000022400F4804011900120039010200490B3
:108AD000009406940820CDE90750A820CDE90904A8
:108AE00007200B906846FFF725FE00B1FEE70CA9B2
:108AF0000F2081E831004FF4A0500F904FF48050C8
:108B0000109005210CA8FFF747FD00B1FEE7FFF725
:108B1000DBFD4FF47A71B0FBF1F0FFF790FF04201A
:108B2000FFF780FF00221146501EFFF703FD13B030
:108B300030BD00004038024000700040104801681D
:108B400041F4700101600F48016841F001010160CA
:108B50000C4A00210832116002680B4B1A40026077
:108B6000031D0A4A1A60026822F480220260054846
:108B70000C300160024906488039086070470000E7
:108B800088ED00E000380240FFFFF6FE10300024C0
:108B90000080000802E008C8121F08C1002AFAD1AC
:108BA00070477047002001E001C1121F002AFBD16D
:108BB0007047000086B0FFF763FCFFF76FFF1548B2
:108BC0000026016841F008010160016801F0080118
:108BD0000591016841F00101016000680E4D00F04F
:108BE00001004FF470440590324621462846FFF7B5
:108BF00033FC01200094CDE901066946284603961E
:108C0000FFF74EFB21462846FFF722FC6420FFF7C2
:108C100039FBF7E730380240000C0240000000004A
:108C20000000000001020304060708094C8C00083C
:108C30000000002008000000948B0008548C0008FD
:108C40000800002000040000A48B000800000000C1
:048C50000024F40008
:0400000508008189E5
:00000001FF
