:020000040800F2
:10000000C8050020A5010008AD010008AF010008E7
:10001000B1010008B3010008B501000800000000AC
:100020000000000000000000000000006D12000849
:10003000B9010008000000006B1200086F120008F0
:10004000BF010008BF010008BF010008BF01000890
:10005000BF010008BF010008BF010008BF01000880
:10006000BF010008BF010008BF010008BF01000870
:10007000BF010008BF010008BF010008BF01000860
:10008000BF010008BF010008BF010008BF01000850
:10009000BF010008BF010008BF010008BF01000840
:1000A000BF010008BF010008BF010008BF01000830
:1000B000BF010008BF010008BF010008BF01000820
:1000C000BF010008BF010008BF010008BF01000810
:1000D000BF0100089D170008A9170008BF0100080C
:1000E000BF010008BF010008BF010008BF010008F0
:1000F000BF010008BF010008BF010008BF010008E0
:10010000BF010008BF010008BF010008BF010008CF
:10011000BF010008BF010008BF010008BF010008BF
:10012000BF010008BF010008BF010008BF010008AF
:10013000BF010008BF010008BF010008BF0100089F
:10014000BF010008BF010008BF010008BF0100088F
:10015000BF010008BF010008BF010008BF0100087F
:10016000BF010008BF010008BF010008BF0100086F
:10017000BF010008BF010008BF0100080000000027
:10018000BF010008BF010008DFF80CD000F04CFAF6
:100190000048004711220008C805002080F30888A5
:1001A000084700000648804706480047FEE7FEE78C
:1001B000FEE7FEE7FEE7FEE7FEE7FEE7FEE7FEE717
:1001C0001D130008890100082DE9F05F0546002095
:1001D00092469B4688460646814640241BE02846B8
:1001E00041464746224600F057F853465A46C01A41
:1001F000914110D311461846224600F03EF82D1AC0
:1002000067EB01084F4622460120002100F035F837
:1002100017EB00094E41201EA4F10104DFDC484623
:1002200031462A464346BDE8F09FD2B201E000F8CD
:10023000012B491EFBD270470022F6E710B513468A
:100240000A4604461946FFF7F0FF204610BD30B5B8
:100250000B46014600202022012409E021FA02F584
:100260009D4205D303FA02F5491B04FA02F528441E
:10027000151EA2F10102F1DC30BD202A04DB203A78
:1002800000FA02F1002070479140C2F1200320FAE9
:1002900003F3194390407047202A04DB203A21FAE7
:1002A00002F00021704721FA02F3D040C2F120028F
:1002B00091400843194670472DE9FE4F804681EA78
:1002C0000300C00F0C46009021F0004123F00045D0
:1002D000B8EB0200A94105D24046214690461C4693
:1002E0000B46024623F00040104347D0270DC7F3CA
:1002F0000A00C3F30A510290401A019040286BDAB9
:10030000C3F3130040F4801B0098924620B10023F1
:10031000D2EB030A63EB0B0B01985946C0F1400284
:100320005046FFF7AAFF06460D4650465946019A29
:1003300000F08CF910EB08006141002487EA1152AB
:1003400084EAE7731A4340D0009A62B3019A012A03
:100350004FEA075215DC001B61EB02014FF000422F
:1003600002EA0752CDE90042001C41F580113246F5
:100370002B4600F08CF903B0BDE8F08F40462146D3
:10038000F9E7001B61EB0201001C41F58013001826
:100390005B412018A2F5001747EB030140EAD57036
:1003A000B6196D4111E06D084FEA360645EAC07591
:1003B0004FEA0752001B61EB0201001C41F580115E
:1003C00049084FEA30000019514132462B4603B02C
:1003D000BDE8F04F00F04CB9009801224000002326
:1003E000D0EB020263EBE073009821464FEAE07421
:1003F000B8EB000061EB0401E9E783F000435BE741
:1004000081F0004158E72DE9FE4F81EA030404F032
:10041000004421F0004100944FF0000B23F0004312
:1004200050EA01045ED052EA03045BD0C3F30A54DD
:10043000C1F30A552C44A4F2F3340194A0FB0254F6
:10044000C1F3130141F48011C3F3130343F4801388
:1004500001FB024400FB034E840A970A44EA8154DC
:1004600047EA8357A4FB076802958D0A05FB0785B9
:100470004FEA932C04FB0C542705029D4FEA0658C3
:1004800047EA1637B5EB08056EEB070C870E920EA0
:1004900047EA811742EA8312A7FB0201B6EB0B0180
:1004A00064EB00042B0D43EA0C335E1844EB1C5044
:1004B000DA465146E7FB0201C5F313044FEA0B335A
:1004C00043EA14534FEA0432019C43EA0603A4F1C1
:1004D0000C040294009CCDE900B400F0D8F803B0FD
:1004E000BDE8F08F00200146F9E72DE9F04D81EAE3
:1004F000030404F0004B21F0004514464FF0000ABD
:1005000023F0004150EA050220D054EA01021DD038
:10051000C5F30A570246C5F31303C1F31300C1F331
:100520000A5640F4801543F48013A7EB0608101B0D
:10053000D64608F2FD3873EB050002D308F1010836
:1005400001E092185B41B8F1000F03DA0020014688
:10055000BDE8F08D00204FF48011064684460EE081
:10056000171B73EB050705D3121B63EB050306434B
:100570004CEA010C49084FEA300092185B4150EAFE
:100580000107EDD152EA030012D082EA040083EAA7
:100590000501084305D0101BAB4106D20122002300
:1005A00006E000224FF0004302E06FF0010253101A
:1005B0001AEB06004CEB085110EB0A0041EB0B0163
:1005C000BDE8F04D00F054B8C1F30A52C1F3130175
:1005D00040F2FF3341F480119A4202DA00200146D2
:1005E000704740F233439A42A2F2334202DC524255
:1005F000FFF752BEFFF741BE30B5041E71F1000493
:1006000004DB4FF00044404264EB0101141E73F11F
:10061000000405DB1C464FF00043524263EB040329
:10062000994208BF904230BD064C074D06E0E06895
:1006300040F0010394E8070098471034AC42F6D329
:10064000FFF7A6FD6823000888230008202A06DBA0
:10065000CB17203A41FA02F043EAE07306E041FA90
:1006600002F3D040C2F1200291400843194670477E
:1006700010B5141E73F1000408DA401C41F10001AA
:1006800092185B411A4301D120F0010010BD2DE901
:10069000F04D92469B4611B1B1FA81F202E0B0FAF8
:1006A00080F220329046FFF7E8FD04460F4640EA0C
:1006B0000A0041EA0B0153465A46084313D011463B
:1006C00053EA010019D0C8F140025046FFF7E4FD9B
:1006D00005460E46504659464246FFF7CEFD0843B2
:1006E00005D0012004E020463946BDE8F08D002009
:1006F000054346EAE0762C4337430A986305E40A4B
:10070000A0EB08000022FD0A44EA47540A3002D553
:1007100000200146E9E7010510196941DDE90845B6
:1007200000196941BDE8F04DA2E790F835100229A3
:1007300003D08021416501207047052180F83510E4
:100740000068016821F0010101600020704731B5A7
:1007500000F0EAF8009C0546601C00D0641C00F024
:10076000E3F8401BA042FAD338BD00002DE9F84F52
:10077000DFF87CB100224FF001084FF0030A4FF080
:100780000F090BF1040E00BF0B6808FA02F42340B6
:10079000A3426ED14D68022D01D0122D0ED1D50885
:1007A00000EB850CDCF820505607F70E09FA07F627
:1007B000B5430E69BE402E43CCF820600668550054
:1007C0000F790AFA05FC07F0030726EA0C06AF408A
:1007D000374307604E68012E05D0022E03D0112E3C
:1007E00001D0122E0ED18668CF6826EA0C06AF40E3
:1007F000374387604668A6430C79C4F300149440DD
:1008000034434460C6688C6826EA0C06AC40344326
:10081000C4604C68E40065D5364C256845F48045D5
:100820002560246822F0030504F480440094324CCF
:100830002E19D6F8084895072F0F09FA07F5AC438B
:100840002E4DA84201D1002524E02D4DA84201D112
:1008500001251FE02B4DA84201D102251AE02A4DA7
:10086000A84201D1032515E0284DA84202D1042554
:1008700010E037E0264DA84201D105250AE0254DBC
:10088000A84201D1062505E0234DA84201D1072544
:1008900000E00825BD402543C6F80858DBF80040B5
:1008A0005D464E689C43F60300D51C432C60DEF881
:1008B000004075464E689C43B60300D51C432C602F
:1008C0000B4D08352C684E689C43F60200D51C433E
:1008D0002C60074D0C352C684E689C43B60200D541
:1008E0001C432C60521C102AFFF44EAFBDE8F88F59
:1008F000003C01404438024000300140000002400A
:100900000004024000080240000C024000100240B7
:100910000014024000180240001C02400AB181612C
:1009200070470904FBE700000148006870470000B9
:100930000000002002480168491C01607047000067
:10094000000000200B4810B5016841F400710160FF
:10095000016841F480610160016841F480710160C7
:10096000032000F075F8002000F006F800F018F8F9
:10097000002010BD003C024010B5044607484FF46B
:100980007A710068B0FBF1F000F0E7FA002221462E
:10099000501E00F03DF8002010BD00004000002077
:1009A00010B5072000F054F8002211466FF00B003C
:1009B00000F02EF8002211466FF00A0000F028F82F
:1009C000002211466FF0090000F022F800221146C3
:1009D000501F00F01DF800221146101F00F018F8FB
:1009E00000221146901E00F013F80022BDE81040CE
:1009F0001146501E00F00CB800F01F02012191407A
:100A00004009800000F1E020C0F8001170470000AC
:100A1000F0B40E4B1B680C46C3F30223C3F1070569
:100A2000042D00D90425191D072901D2002300E057
:100A3000DB1E012606FA05F1491E214099409E4021
:100A4000761E16403143F0BC00F0FFBB0CED00E019
:100A5000064900F0070208684FF6FF03184040EA15
:100A60000220034A10430860704700000CED00E0CC
:100A70000000FA052DE9F0470E46050065D0DFF8C5
:100A80001481D8F80000F7B200F00F00B04207D28E
:100A900088F80070D8F8000000F00F00B04254D180
:100AA00028683D4C810712D5400703D5206840F4E3
:100AB000E05020602878000703D5206840F46040AB
:100AC00020602068A96820F0F000084320602878A2
:100AD000C0072DD0304968680839012812D0022893
:100AE00013D0032811D00968890700292DDA21685D
:100AF00021F0030101432160FFF716FF814641F217
:100B0000883A0EE009688903EFE709688901ECE794
:100B1000FFF70AFFA0EB0901514502D90320BDE808
:100B2000F0872068696800F00C00B0EB810FEFD10E
:100B3000D8F80010404601F00F01B14207D9077004
:100B4000006800F00F00B04201D00120E7E72878EC
:100B5000400705D52068E96820F4E050084320608C
:100B60002878000706D52068296920F4604040EA0B
:100B7000C100206000F03CF82168084AC1F303116D
:100B8000515CC840064908600020FFF7F5FE0020D0
:100B9000C5E70000003C0240083802404D23000831
:100BA000400000200148006870470000400000201D
:100BB0000448054900680968044AC1F38221515C70
:100BC000C840704740000020083802405D230008FC
:100BD0000448054900680968044AC1F34231515C80
:100BE000C840704740000020083802405D230008DC
:100BF000154810B5006810F00C02144813D04110CD
:100C0000042A0FD0082A0ED10F4C241F2268236813
:100C100002F03F025B0207D52068C0F38810A0FBFA
:100C2000010106E0084610BD2168C1F38811A1FB4F
:100C300000010023FFF7C8FA2168C1F30141491CF4
:100C40004900B0FBF1F010BD083802400024F40068
:100C50002DE9F84F050071D0DFF8D0922878A9F17E
:100C6000040BC007ABF104044AD0D9F80010484681
:100C7000C1F38101012908D00068C0F38100022876
:100C80000AD1DBF80000400206D52068800337D582
:100C900068680028DFD033E06868B0F5803F10D086
:100CA000B0F5A02F206810D020F48030206020689C
:100CB00020F4802020606868A8B1FFF735FE064662
:100CC0000DE0206840F48030F4E740F4802020609C
:100CD000F7E700BFFFF728FE801B642873D8206861
:100CE0008003F7D50CE0FFF71FFE064605E000BFC6
:100CF000FFF71AFE801B6428F0D820688003F7D421
:100D000028788B4F80074FF0010A4FF000083DD53F
:100D1000D9F80010484611F00C0F08D00068C0F355
:100D2000810002280BD1DBF80000400207D42068C4
:100D3000800715D5E868012800D111E0F3E0E868E4
:100D4000B0B1C7F800A0FFF7EFFD064605E000BF11
:100D5000FFF7EAFD801B022835D820688007F7D509
:100D60002068296920F0F80040EAC10020600DE009
:100D7000C7F80080FFF7D8FD064604E0FFF7D4FD72
:100D8000801B02281FD820688007F7D42878000726
:100D900024D56848696981B1C0F800A0FFF7C4FD97
:100DA000064604E0FFF7C0FD801B02280BD85F4811
:100DB0006C3000688007F5D510E0C0F80080FFF7C0
:100DC000B3FD064605E074E0FFF7AEFD801B022888
:100DD0006FD856486C3000688007F5D428784007F3
:100DE00053D552483830016841F0805101600068A5
:100DF00000F0805000905048016841F4807101601B
:100E0000FFF792FD064604E0FFF78EFD801B0228E7
:100E10004FD849480068C005F6D5444EA8686836E2
:100E200001280FD00528306810D020F00100306074
:100E3000306820F004003060A868B8B1FFF774FD96
:100E400000900FE0306840F00100F4E740F004004B
:100E50003060F7E7FFF768FD0099411A41F28830EA
:100E6000814258D830688007F4D50EE0FFF75CFD6A
:100E7000009007E0FFF758FD0099411A41F28830D1
:100E8000814248D830688007F4D4A86990B3D9F873
:100E90000010C1F38101022945D00228C7F8608003
:100EA00003D0FFF741FD054638E0FFF73DFD06465C
:100EB00005E030E0FFF738FD801B02282BD82068C2
:100EC0008001F7D4D5E907010843A96A1B4A4908FC
:100ED00002EB01416A6A41EA8211084395F82C103D
:100EE00040EA0161CBF80010C7F860A0FFF71CFDD5
:100EF000054606E015E000BFFFF716FD401B02287F
:100F000009D820688001F7D50BE000BFFFF70CFD82
:100F1000401B022802D90320BDE8F88F2068800119
:100F2000F4D40020F8E70120F6E70000083802407A
:100F300000004742800E4742007000400000FFFF63
:100F40004FF0E0210428086903D020F00400086174
:100F5000704740F00400FAE7704710B5401EB0F14A
:100F6000807F01D3012010BD4FF0E02460610F218C
:100F7000601700F06AF90020A061072020610020BE
:100F800010BD10B5FFF7E8FF10BD704770B50268DF
:100F900004461068D168536910F00F0F50D003F069
:100FA000010501F4907635435DD0C20705D0CA052E
:100FB00003D5E26B42F00102E263420705D5DA078E
:100FC00003D0E26B42F00202E263820705D5DA0742
:100FD00003D0E26B42F00402E263020705D5DA07B0
:100FE00003D0E26B42F00802E263E26B002A33D0E6
:100FF000800604D5880602D5204600F0CFF9206887
:101000004069E16BC0F38010090700D428B3204683
:1010100000F0B6F92068416949061AD5416921F006
:1010200040014161606BA0B11B490165606BFFF736
:101030007CFB002810D0606B016DBDE87040084754
:10104000830610D58B060ED52046BDE8704000F013
:10105000A5B92046FFF799FF70BD2046FFF795FF21
:101060000020E06370BD030606D50B0604D52046BC
:10107000BDE8704000F02EBB4006F3D54806F1D520
:10108000D168204621F04001D160202184F8391038
:1010900000F0DAF870BD00007113000870B50400AC
:1010A00004D094F83900002510B106E0012070BD8D
:1010B00084F83850204600F023F8242084F83900C2
:1010C0002068C16821F40051C160204600F0ACF9ED
:1010D0002068016921F4904101612068416921F093
:1010E0002A0141612068C16841F40051C160E56393
:1010F000202084F8390084F83A00002070BD0000F8
:1011000070B51E4E016802220123032407251C48E6
:1011100086B0B14215D11B490E6846F010060E602C
:10112000096801F01001059161028DE83E006946F1
:10113000FFF71CFB002211462520FFF769FC252044
:1011400018E0114EB14217D10E49091F0E6846F43E
:1011500000360E60096801F4003105910C218DE81C
:101160003E006946FFF702FB002211462620FFF7EA
:101170004FFC2620FFF740FC06B070BD0010014078
:1011800000000240443802400044004070472DE90E
:10119000F843044690F839001F4616460D462028AD
:1011A00050D1A5B19EB194F8380001284AD0012051
:1011B00084F838004FF00008C4F83C80212084F8FF
:1011C0003900FFF7B1FBA6848146E68426E00120C2
:1011D000BDE8F883E08C401EE084A0684B46B0F583
:1011E000805F4FF000024FF080012046009703D04F
:1011F00000F0A1FAE8B90DE000F09DFAC8B928881E
:101200002168C0F308004860206908B16D1C05E042
:10121000AD1C03E0216815F8010B4860E08C002844
:10122000D8D14B46002240212046009700F083FA97
:1012300008B10320CCE7202084F8390084F83880F6
:101240000020C5E70220C3E770470907090E002800
:1012500006DA00F00F0000F1E02080F8141D70475E
:1012600000F1E02080F8001470477047704710B517
:10127000FFF760FBBDE81040FFF783BE30B525489F
:1012800093B00025016841F080510160006800F0D2
:10129000805011902048016841F48041016000684D
:1012A000022400F48040119001200390102004904B
:1012B000009406940820CDE90750A820CDE9090440
:1012C00007200B906846FFF7C3FC00B1FEE70CA9AE
:1012D0000F2081E831004FF4A0500F904FF4805060
:1012E000109005210CA8FFF7C5FB00B1FEE7FFF742
:1012F00059FC4FF47A71B0FBF1F0FFF72EFE042099
:10130000FFF71EFE00221146501EFFF781FB13B0AF
:1013100030BD0000403802400070004010480168B5
:1013200041F4700101600F48016841F00101016062
:101330000C4A00210832116002680B4B1A4002600F
:10134000031D0A4A1A60026822F4802202600548DE
:101350000C3001600249580680390860704700006F
:1013600088ED00E000380240FFFFF6FE1030002458
:1013700010B5806B0021C185C184FFF706FE10BD4A
:101380000168CA6822F49072CA6001684A6922F052
:1013900001024A61202180F83A10704710B590F898
:1013A0003A10222901D0022010BD8168B1F5805F7A
:1013B00011D00169002901681FD0496801F07F033D
:1013C000816A4A1C82620B70C18D491E0904090C96
:1013D000C18518D026E00269816A002A0268526835
:1013E00005D0D2B20A80816A491C8162ECE7C2F35F
:1013F00008020A80816A891CF7E74A68816A4B1CE7
:1014000083620A70E0E70168CA6822F49072CA60D9
:1014100001684A6922F001024A61202180F83A10ED
:10142000FFF7B4FE002010BD2DE9F041044600682E
:10143000016921F44052E168114301612168C868E3
:1014400049F20C6290432369A268E5691A43636913
:101450002B431A430243CA602168486920F4407252
:10146000A06910434861E1696425B1F5004F9748D0
:10147000974A21684FF032083FD0914201D0814213
:101480007CD1FFF7A5FB00EBC00101EB0010616808
:101490008900B0FBF1F6FFF79BFB00EBC00101EB0D
:1014A000001061688900B0FBF1F0B0FBF5F06FF05F
:1014B0001801484306EB800108EB0110B0FBF5F082
:1014C00000F0F006FFF784FB00EBC00101EB001019
:1014D00061688900B0FBF1F0B0FBF5F006EB001697
:1014E000FFF776FB00EBC00101EB0010616889009B
:1014F000B0FBF1F7FFF76CFBD2E0914201D08142E3
:101500003DD1FFF765FB00EBC00101EB0010616806
:101510004900B0FBF1F0B0FBF5F00601FFF758FB16
:1015200000EBC00101EB001061684900B0FBF1F76E
:10153000FFF74EFB00EBC00101EB001061684900B2
:10154000B0FBF1F0B0FBF5F06FF01801484307EB8A
:10155000800108EBC100B0FBF5F000F0F80006EBED
:101560004006FFF735FB00EBC00101EB001061689E
:101570004900B0FBF1F7FFF72BFB3CE055E0FFF72C
:1015800017FB00EBC00101EB001061684900B0FBE4
:10159000F1F0B0FBF5F00601FFF70AFB00EBC0012C
:1015A00001EB001061684900B0FBF1F7FFF700FBA9
:1015B00000EBC00101EB001061684900B0FBF1F0E5
:1015C000B0FBF5F06FF01801484307EB800108EB22
:1015D000C100B0FBF5F000F0F80006EB4006FFF7A5
:1015E000E7FA00EBC00101EB001061684900B0FBB5
:1015F000F1F7FFF7DDFA00EBC00101EB00106168C5
:101600004900B0FBF1F0B0FBF5F06FF01801484372
:1016100007EB800108EBC100B0FBF5F000F007001C
:10162000216830448860BDE8F081FFF7C1FA00EB23
:10163000C00101EB001061688900B0FBF1F6FFF713
:10164000B7FA00EBC00101EB001061688900B0FB44
:10165000F1F0B0FBF5F06FF01801484306EB8001A4
:1016600008EB0110B0FBF5F000F0F006FFF7A0FA70
:1016700000EBC00101EB001061688900B0FBF1F0E4
:10168000B0FBF5F006EB0016FFF792FA00EBC00195
:1016900001EB001061688900B0FBF1F7FFF788FAF1
:1016A00000EBC00101EB001061688900B0FBF1F0B4
:1016B000B0FBF5F06FF01801484307EB800108EB31
:1016C0000110B0FBF5F000F00F00A9E70014014095
:1016D0000010014090F83910212901D002207047F4
:1016E0008168B1F5805F016A0BD04A1C0262026812
:1016F00009785160C18C491E0904090CC1840ED0BF
:1017000017E009880268C1F30801516001690029E6
:10171000016A02D0491C0162ECE7891CFBE7016801
:10172000CA6822F08002CA600068C16841F04001C6
:10173000C160002070472DE9F041984617460E46DB
:101740000446069D1DE0681C1BD02DB1FFF7ECF888
:10175000A0EB0800A84214D92068C16821F4D07118
:10176000C1602068416921F001014161202084F8B5
:10177000390084F83A00002084F838000320BDE8DE
:10178000F0812068006836EA000004D00020B842EA
:10179000D9D00020F3E70120F9E700000148FFF766
:1017A000F5BB0000440000200148FFF7EFBB00003C
:1017B0008400002037B514460846064B6A46214689
:1017C00000F0DCF804466946002000F06EFC20467C
:1017D0003EBD0000AB20000802E008C8121F08C18F
:1017E000002AFAD170477047002001E001C1121FA2
:1017F000002AFBD1704700002DE9FF5F82B0002175
:10180000DDE90430020DDDF840B0034318D044F6A2
:101810001050A2F2FF3242431514119801281FD034
:10182000A5EB0B00401C5FEA000A4FF000064E4F8C
:10183000DFF83891B046504615D5CAF1000413E0E0
:10184000119801244AA3012801D16FEA0B010298E3
:10185000119AC0E90031C0E9024206B0BDE8F09F2C
:10186000CBF10000DFE704460021404A491842EB73
:101870000450CDE9001012E0E00707D032463B46A5
:1018800040464946FEF7BFFD8046894632463B4604
:1018900010461946FEF7B7FD06460F466410002CA9
:1018A000EAD1DDE90401DDE90023BAF1000F06DA2F
:1018B000FEF7A9FD42464B46FEF7A5FD05E0FEF703
:1018C00014FE42464B46FEF710FE04460E4600222A
:1018D000284BFEF791FE03D84FF0FF30014607E09A
:1018E0000022254B20463146FEF7E6FCFEF76CFE53
:1018F000102409E0002C0ADB0A220023FEF764FC16
:10190000039B30321A55641E50EA0102F2D1641C66
:10191000039AC4F111031444119A012A03D001223D
:1019200008430DD10AE0084304D000204FF0110B0A
:10193000119072E7A3EB0B056D1E0DE05B4504DD16
:101940004FF0000205F1010504E003DA4FF0000258
:10195000A5F10105002AECD002981199C0E90231E5
:10196000C0E9004579E70000000014400000F03FA6
:10197000300000000000F0430000E03F2DE9FF4F81
:1019800095B09B468946064600250FE2252877D16B
:1019900000242746F84A0121059400E0044316F884
:1019A000013F203B01FA03F01042F7D130782A289A
:1019B00011D06FF02F033078A0F13002092A16D829
:1019C000059A44F0020402EB820203EB4202104447
:1019D000761C0590EFE759F8042B0592002A03DAEC
:1019E000504244F40054059044F00204761C3078D0
:1019F0002E2816D116F8010F44F004042A280DD021
:101A00006FF02F023078A0F13003092B09D807EBD3
:101A1000870302EB4303C718761CF3E759F8047BEE
:101A2000761C30786C280FD006DC4C2817D068283C
:101A30000DD06A2814D104E0742810D07A280FD170
:101A40000DE044F400140AE044F4801401E044F48E
:101A500040147278824202D104F58014761C761C00
:101A6000307866280BD013DC582877D009DC0028A2
:101A700075D04528F6D04628F4D047281AD19DE1E4
:101A800018E0632835D0642879D0652812D195E113
:101A9000702873D008DC6728F1D069286FD06E28D1
:101AA0000DD06F2806D1B5E073282CD0752875D0DD
:101AB000782874D05A46179990476D1C75E1C4F385
:101AC0000250022809D003280DD0D9F800100428AC
:101AD0000DD00D6009F1040967E1D9F80010EA178B
:101AE000C1E90052F6E7D9F800100D80F2E70D7059
:101AF000F0E719F8041B8DF8001000208DF80100A4
:101B0000EA46012003E059F804AB4FF0FF306107CB
:101B10004FF0000102D40DE008F101018846B942FE
:101B20000FDA8045F8DB1AF808100029F4D108E034
:101B300008F1010188468142FADB1AF808100029F1
:101B4000F6D105985B46A0EB080721463846179A60
:101B500000F094FA284400EB080507E04DE029E185
:101B60000DE01AF8010B5A4617999047B8F1010891
:101B7000F7D25B4621463846179A13E142E00A2223
:101B80000092C4F302524FF0000A022A08D059F81A
:101B900004CB032A4FEAEC710AD00DE029E02AE0D9
:101BA00009F1070121F00702F2E802C1914609E0BC
:101BB0000FFA8CFC4FEAEC71042A03D14FFA8CFC2B
:101BC0004FEAEC71002907DA0A460021DCF1000C2B
:101BD00061EB02012D2202E0220504D52B228DF8B3
:101BE0000420012203E0E20701D02022F7E790461B
:101BF00059E00A2102E010220DE010214FF0000A06
:101C000000910BE010224FF0000A44F00404082772
:101C1000009203E008224FF0000A0092C4F302523F
:101C2000022A05D059F804CB0021032A08D009E084
:101C300009F1070121F00702F2E802C1914605E02F
:101C40001FFA8CFC042A01D10CF0FF0C4FF00008A5
:101C5000220728D5702806D0009B83F0100353EA92
:101C60000A0305D00EE040228DF80420012208E08E
:101C70005CEA010206D030228DF804208DF80500C0
:101C800002229046009B83F0080353EA0A030AD11C
:101C90005CEA010201D1620705D530228DF80420EB
:101CA0004FF001087F1E582804D034A003900EA8DE
:101CB00002900DE036A0F9E753466046009AFEF721
:101CC00083FA84460398825C0298401E0290027058
:101CD0005CEA0100F0D1029806A9081A00F1200A76
:101CE000600702D524F4803400E00127574502DD67
:101CF000A7EB0A0000E0002000EB0A010090059825
:101D00004144401A0590E00306D45B462146179AE9
:101D1000059800F0B3F90544002706E001A85A46EB
:101D2000C05D179990476D1C7F1C4745F6DBE003AB
:101D30000CD55B462146179A059800F09FF905449B
:101D400004E030205A46179990476D1C0099481EB0
:101D500000900029F5DC08E0029802995A460078C4
:101D6000491C0291179990476D1CBAF10001AAF124
:101D7000010AF1DC65E1000009280100303132334D
:101D800034353637383961626364656600000000B7
:101D900030313233343536373839414243444546A1
:101DA0000000000000F058F90544761C3078002847
:101DB0007FF4ECAD19B02846BDE8F08F620700D47F
:101DC000062709F1070222F0070CFCE80223E1468E
:101DD00003F000485FEA080C02D00FF2702C0DE00F
:101DE0005FEA045C02D50FF2682C07E05FEAC47C6E
:101DF00002D00FF2602C01E0AFF2700C4FF0FF3810
:101E000023F00043CDF850C065280CD006DC4528EF
:101E100009D046281DD047283DD13DE0662818D07E
:101E200067287ED138E00021112F01DB112000E06E
:101E3000781CCDE9000106A90EA8FFF7DDFCDDE95D
:101E40000F010E9A03910021009207F1010A0491FB
:101E50004DE04FF000400097CDE9011006A90EA813
:101E6000FFF7CAFCDDE90F0203920E9B11990022D5
:101E7000DDF80CA00093049211B9791C00EB010A63
:101E8000B7EB0A0004D4C0F1FF3007F1010A049057
:101E9000AAEB0700019044E0012F00DA012700219E
:101EA000112F01DD112000E03846CDE9000106A91F
:101EB0000EA8FFF7A1FCDDE90F010E9A03910021A6
:101EC00004910092BA4621070CD40399514500DAD7
:101ED0008A46BAF1010F05DD009AAAF10101515CB1
:101EE000302908D0B84202DA10F1040F06DA0121D5
:101EF000CDE9011015E0AAF10101E9E7002805DCB0
:101F0000049901440491AAEB000102E0411C5145EF
:101F100000DD8A460499401A401C01904FF00040B1
:101F20000290200704D40198504501DBCDF80480CD
:101F300000208DF84F0002980DF14F07B0F1004FCF
:101F400025D02B200E9002984FF0020800280CDAC2
:101F5000404202902D200E9007E00A210298FEF7E1
:101F600076F93031029007F8011DB8F10001A8F1AF
:101F70000108F2DC02980028EFD1791E0E98087053
:101F8000307800F0200040F0450007F8020D12A85C
:101F9000C01B00F107081498007800B1012000EB85
:101FA0000A01019801EBE07105984144401A401E76
:101FB0000590E00306D45B462146179A059800F089
:101FC0005DF805441498007818B15A46179990475F
:101FD0006D1CE00324D55B462146179A059800F056
:101FE0004DF805441CE00498002807DBDDE90301F7
:101FF000884203DD0098405C179901E01799302072
:102000005A469047049805F10105401C0490019838
:10201000401E019004D12E205A46179990476D1CFE
:10202000BAF10001AAF1010ADDDC05E017F8010BA5
:102030005A46179990476D1CB8F10001A8F10108A4
:10204000F4DC5B462146179A0598ABE62D000000AC
:102050002B000000200000002DE9F041044600257F
:102060001E461746880404D405E039462020B047B0
:102070006D1C641EF9D52846BDE8F0812DE9F041BC
:10208000044600251E469046C80301D5302700E0CF
:102090002027880404D505E041463846B0476D1C2A
:1020A000641EF9D52846BDE8F0810A68531C0B6010
:1020B0001070704770B504464FF6FF7506E02B466A
:1020C000012221460348FFF762F8641C20780028AB
:1020D000F5D170BD84000020FEF726BC0FB408487F
:1020E00010B503AA0299FFF765FB0548FFF7E2FF69
:1020F0004FF480710248FEF79FF810BC5DF814FBA6
:10210000C40000200446EFF31480C00700D000DFB5
:102110004FF0E0214FF0FF32C1F88021C1F8842157
:10212000C1F88821C1F88C21C1F89021C1F894210F
:10213000C1F89821C1F89C21C1F88022C1F88422FD
:10214000C1F88822C1F88C22C1F89022C1F89422EB
:10215000C1F89822C1F89C22002008610F4801684C
:1021600041F0007101600D482030016821F4E02148
:102170000160EFF31480800709D5EFF3098080F345
:102180000888EFF3148020F0020080F314880348DD
:10219000001D0460D4E90001FEF700F804ED00E042
:1021A000194B10B55A68194C521C4FF470415A60C3
:1021B000012A08D0022A0DD0032A12D0042A17D0EF
:1021C0000020586010BD00222046FEF7A7FB012228
:1021D000110313E000222046FEF7A0FB0122510369
:1021E0000CE000222046FEF799FB0122910305E056
:1021F00000222046FEF792FB0122D1032046BDE8D3
:102200001040FEF78BBB000004000020000C0240D1
:1022100086B0FEF797FBFFF731F8344800240168D9
:1022200041F001010160016801F0010105910168BF
:1022300041F00801016000682D4E00F008004FF4E5
:1022400070450590224629463046FEF767FB01207F
:102250000095CDE90104694630460394FEF786FAFD
:10226000254824494FF4E1350160C0E901540C26AA
:10227000C460C0E904468461C461FEF70FFF00B189
:10228000FEE71D481D4940300160C0E90154C460AB
:10229000C0E904468461C461FEF700FF00B1FEE7B7
:1022A000FFF71AFF0146164B164A17A0FFF716FF55
:1022B000FFF712FF124B01461A33124A1AA0FFF71A
:1022C0000DFF0F4C42F21075083C1E4EFEF72CFB22
:1022D0002060A84203D93046FFF714FFF6E7FFF766
:1022E0005FFF6420FEF733FAF0E700003038024069
:1022F000000C024000100140440000200044004057
:102300000C000020482300081B5B303B33326D4932
:102310003A28257529205B25735D3A2025731B5BC0
:10232000306D0D0A000000001B5B306D443A28251B
:102330007529205B25735D3A2025731B5B306D0D7D
:102340000A000000008000086D61696E0000000056
:102350000000000000010203040607080900000055
:102360000001020304000000882300080000002090
:1023700044000000D8170008CC23000844000020C7
:1023800084050000E81700080000000000000000BD
:1023900000000000436F6D70696C652044617465D6
:1023A0003A20536570203134203230323200436F8E
:1023B0006D70696C652054696D653A2031363A312B
:0C23C000333A3134000000000024F40027
:040000050800018965
:00000001FF
